{
  "contractName": "Fundraiser",
  "abi": [
    {
      "inputs": [
        {
          "internalType": "string",
          "name": "_name",
          "type": "string"
        },
        {
          "internalType": "string",
          "name": "_image",
          "type": "string"
        },
        {
          "internalType": "string",
          "name": "_description",
          "type": "string"
        },
        {
          "internalType": "uint256",
          "name": "_goalAmount",
          "type": "uint256"
        },
        {
          "internalType": "address payable",
          "name": "_beneficiary",
          "type": "address"
        },
        {
          "internalType": "address",
          "name": "_custodian",
          "type": "address"
        }
      ],
      "stateMutability": "nonpayable",
      "type": "constructor"
    },
    {
      "anonymous": false,
      "inputs": [
        {
          "indexed": true,
          "internalType": "address",
          "name": "donor",
          "type": "address"
        },
        {
          "indexed": false,
          "internalType": "uint256",
          "name": "value",
          "type": "uint256"
        }
      ],
      "name": "DonationReceived",
      "type": "event"
    },
    {
      "anonymous": false,
      "inputs": [
        {
          "indexed": true,
          "internalType": "address",
          "name": "previousOwner",
          "type": "address"
        },
        {
          "indexed": true,
          "internalType": "address",
          "name": "newOwner",
          "type": "address"
        }
      ],
      "name": "OwnershipTransferred",
      "type": "event"
    },
    {
      "anonymous": false,
      "inputs": [
        {
          "indexed": false,
          "internalType": "uint256",
          "name": "amount",
          "type": "uint256"
        }
      ],
      "name": "Withdraw",
      "type": "event"
    },
    {
      "inputs": [
        {
          "internalType": "address",
          "name": "",
          "type": "address"
        },
        {
          "internalType": "uint256",
          "name": "",
          "type": "uint256"
        }
      ],
      "name": "_donations",
      "outputs": [
        {
          "internalType": "uint256",
          "name": "value",
          "type": "uint256"
        },
        {
          "internalType": "uint256",
          "name": "date",
          "type": "uint256"
        }
      ],
      "stateMutability": "view",
      "type": "function"
    },
    {
      "inputs": [],
      "name": "beneficiary",
      "outputs": [
        {
          "internalType": "address payable",
          "name": "",
          "type": "address"
        }
      ],
      "stateMutability": "view",
      "type": "function"
    },
    {
      "inputs": [],
      "name": "description",
      "outputs": [
        {
          "internalType": "string",
          "name": "",
          "type": "string"
        }
      ],
      "stateMutability": "view",
      "type": "function"
    },
    {
      "inputs": [],
      "name": "donationsCount",
      "outputs": [
        {
          "internalType": "uint256",
          "name": "",
          "type": "uint256"
        }
      ],
      "stateMutability": "view",
      "type": "function"
    },
    {
      "inputs": [],
      "name": "goalAmount",
      "outputs": [
        {
          "internalType": "uint256",
          "name": "",
          "type": "uint256"
        }
      ],
      "stateMutability": "view",
      "type": "function"
    },
    {
      "inputs": [],
      "name": "image",
      "outputs": [
        {
          "internalType": "string",
          "name": "",
          "type": "string"
        }
      ],
      "stateMutability": "view",
      "type": "function"
    },
    {
      "inputs": [],
      "name": "name",
      "outputs": [
        {
          "internalType": "string",
          "name": "",
          "type": "string"
        }
      ],
      "stateMutability": "view",
      "type": "function"
    },
    {
      "inputs": [],
      "name": "owner",
      "outputs": [
        {
          "internalType": "address",
          "name": "",
          "type": "address"
        }
      ],
      "stateMutability": "view",
      "type": "function"
    },
    {
      "inputs": [],
      "name": "renounceOwnership",
      "outputs": [],
      "stateMutability": "nonpayable",
      "type": "function"
    },
    {
      "inputs": [],
      "name": "totalDonations",
      "outputs": [
        {
          "internalType": "uint256",
          "name": "",
          "type": "uint256"
        }
      ],
      "stateMutability": "view",
      "type": "function"
    },
    {
      "inputs": [
        {
          "internalType": "address",
          "name": "newOwner",
          "type": "address"
        }
      ],
      "name": "transferOwnership",
      "outputs": [],
      "stateMutability": "nonpayable",
      "type": "function"
    },
    {
      "inputs": [
        {
          "internalType": "address payable",
          "name": "_beneficiary",
          "type": "address"
        }
      ],
      "name": "setBeneficiary",
      "outputs": [],
      "stateMutability": "nonpayable",
      "type": "function"
    },
    {
      "inputs": [],
      "name": "donate",
      "outputs": [],
      "stateMutability": "payable",
      "type": "function"
    },
    {
      "inputs": [],
      "name": "myDonationsCount",
      "outputs": [
        {
          "internalType": "uint256",
          "name": "",
          "type": "uint256"
        }
      ],
      "stateMutability": "view",
      "type": "function"
    },
    {
      "inputs": [],
      "name": "myDonations",
      "outputs": [
        {
          "internalType": "uint256[]",
          "name": "values",
          "type": "uint256[]"
        },
        {
          "internalType": "uint256[]",
          "name": "dates",
          "type": "uint256[]"
        }
      ],
      "stateMutability": "view",
      "type": "function"
    },
    {
      "inputs": [],
      "name": "withdraw",
      "outputs": [],
      "stateMutability": "nonpayable",
      "type": "function"
    }
  ],
  "bytecode": "0x60806040523480156200001157600080fd5b5060405162001a4c38038062001a4c833981810160405281019062000037919062000436565b620000576200004b620000f260201b60201c565b620000fa60201b60201c565b856002908162000068919062000770565b5084600390816200007a919062000770565b5083600490816200008c919062000770565b508260068190555081600560006101000a81548173ffffffffffffffffffffffffffffffffffffffff021916908373ffffffffffffffffffffffffffffffffffffffff160217905550620000e681620000fa60201b60201c565b50505050505062000857565b600033905090565b60008060009054906101000a900473ffffffffffffffffffffffffffffffffffffffff169050816000806101000a81548173ffffffffffffffffffffffffffffffffffffffff021916908373ffffffffffffffffffffffffffffffffffffffff1602179055508173ffffffffffffffffffffffffffffffffffffffff168173ffffffffffffffffffffffffffffffffffffffff167f8be0079c531659141344cd1fd0a4f28419497f9722a3daafe3b4186f6b6457e060405160405180910390a35050565b6000604051905090565b600080fd5b600080fd5b600080fd5b600080fd5b6000601f19601f8301169050919050565b7f4e487b7100000000000000000000000000000000000000000000000000000000600052604160045260246000fd5b6200022782620001dc565b810181811067ffffffffffffffff82111715620002495762000248620001ed565b5b80604052505050565b60006200025e620001be565b90506200026c82826200021c565b919050565b600067ffffffffffffffff8211156200028f576200028e620001ed565b5b6200029a82620001dc565b9050602081019050919050565b60005b83811015620002c7578082015181840152602081019050620002aa565b60008484015250505050565b6000620002ea620002e48462000271565b62000252565b905082815260208101848484011115620003095762000308620001d7565b5b62000316848285620002a7565b509392505050565b600082601f830112620003365762000335620001d2565b5b815162000348848260208601620002d3565b91505092915050565b6000819050919050565b620003668162000351565b81146200037257600080fd5b50565b60008151905062000386816200035b565b92915050565b600073ffffffffffffffffffffffffffffffffffffffff82169050919050565b6000620003b9826200038c565b9050919050565b620003cb81620003ac565b8114620003d757600080fd5b50565b600081519050620003eb81620003c0565b92915050565b6000620003fe826200038c565b9050919050565b6200041081620003f1565b81146200041c57600080fd5b50565b600081519050620004308162000405565b92915050565b60008060008060008060c08789031215620004565762000455620001c8565b5b600087015167ffffffffffffffff811115620004775762000476620001cd565b5b6200048589828a016200031e565b965050602087015167ffffffffffffffff811115620004a957620004a8620001cd565b5b620004b789828a016200031e565b955050604087015167ffffffffffffffff811115620004db57620004da620001cd565b5b620004e989828a016200031e565b9450506060620004fc89828a0162000375565b93505060806200050f89828a01620003da565b92505060a06200052289828a016200041f565b9150509295509295509295565b600081519050919050565b7f4e487b7100000000000000000000000000000000000000000000000000000000600052602260045260246000fd5b600060028204905060018216806200058257607f821691505b6020821081036200059857620005976200053a565b5b50919050565b60008190508160005260206000209050919050565b60006020601f8301049050919050565b600082821b905092915050565b600060088302620006027fffffffffffffffffffffffffffffffffffffffffffffffffffffffffffffffff82620005c3565b6200060e8683620005c3565b95508019841693508086168417925050509392505050565b6000819050919050565b6000620006516200064b620006458462000351565b62000626565b62000351565b9050919050565b6000819050919050565b6200066d8362000630565b620006856200067c8262000658565b848454620005d0565b825550505050565b600090565b6200069c6200068d565b620006a981848462000662565b505050565b5b81811015620006d157620006c560008262000692565b600181019050620006af565b5050565b601f8211156200072057620006ea816200059e565b620006f584620005b3565b8101602085101562000705578190505b6200071d6200071485620005b3565b830182620006ae565b50505b505050565b600082821c905092915050565b6000620007456000198460080262000725565b1980831691505092915050565b600062000760838362000732565b9150826002028217905092915050565b6200077b826200052f565b67ffffffffffffffff811115620007975762000796620001ed565b5b620007a3825462000569565b620007b0828285620006d5565b600060209050601f831160018114620007e85760008415620007d3578287015190505b620007df858262000752565b8655506200084f565b601f198416620007f8866200059e565b60005b828110156200082257848901518255600182019150602085019450602081019050620007fb565b868310156200084257848901516200083e601f89168262000732565b8355505b6001600288020188555050505b505050505050565b6111e580620008676000396000f3fe6080604052600436106100f35760003560e01c8063715018a61161008a578063de2ed89311610059578063de2ed893146102e6578063ed88c68e14610311578063f2fde38b1461031b578063f3ccaac014610344576100f3565b8063715018a61461023b5780637284e416146102525780638da5cb5b1461027d578063dc0661be146102a8576100f3565b80631f522595116100c65780631f522595146101a35780632636b945146101ce57806338af3eed146101f95780633ccfd60b14610224576100f3565b80630180b97c146100f857806306fdde03146101235780631a57f7b41461014e5780631c31f7101461017a575b600080fd5b34801561010457600080fd5b5061010d61036f565b60405161011a9190610ba2565b60405180910390f35b34801561012f57600080fd5b506101386103b9565b6040516101459190610c4d565b60405180910390f35b34801561015a57600080fd5b50610163610447565b604051610171929190610d2d565b60405180910390f35b34801561018657600080fd5b506101a1600480360381019061019c9190610dc7565b6105bc565b005b3480156101af57600080fd5b506101b8610608565b6040516101c59190610ba2565b60405180910390f35b3480156101da57600080fd5b506101e361060e565b6040516101f09190610ba2565b60405180910390f35b34801561020557600080fd5b5061020e610614565b60405161021b9190610e03565b60405180910390f35b34801561023057600080fd5b5061023961063a565b005b34801561024757600080fd5b506102506106ea565b005b34801561025e57600080fd5b506102676106fe565b6040516102749190610c4d565b60405180910390f35b34801561028957600080fd5b5061029261078c565b60405161029f9190610e3f565b60405180910390f35b3480156102b457600080fd5b506102cf60048036038101906102ca9190610eb2565b6107b5565b6040516102dd929190610ef2565b60405180910390f35b3480156102f257600080fd5b506102fb6107f6565b6040516103089190610ba2565b60405180910390f35b6103196107fc565b005b34801561032757600080fd5b50610342600480360381019061033d9190610f1b565b610918565b005b34801561035057600080fd5b5061035961099b565b6040516103669190610c4d565b60405180910390f35b6000600160003373ffffffffffffffffffffffffffffffffffffffff1673ffffffffffffffffffffffffffffffffffffffff16815260200190815260200160002080549050905090565b600280546103c690610f77565b80601f01602080910402602001604051908101604052809291908181526020018280546103f290610f77565b801561043f5780601f106104145761010080835404028352916020019161043f565b820191906000526020600020905b81548152906001019060200180831161042257829003601f168201915b505050505081565b606080600061045461036f565b90508067ffffffffffffffff8111156104705761046f610fa8565b5b60405190808252806020026020018201604052801561049e5781602001602082028036833780820191505090505b5092508067ffffffffffffffff8111156104bb576104ba610fa8565b5b6040519080825280602002602001820160405280156104e95781602001602082028036833780820191505090505b50915060005b818110156105b6576000600160003373ffffffffffffffffffffffffffffffffffffffff1673ffffffffffffffffffffffffffffffffffffffff168152602001908152602001600020828154811061054a57610549610fd7565b5b90600052602060002090600202019050806000015485838151811061057257610571610fd7565b5b602002602001018181525050806001015484838151811061059657610595610fd7565b5b6020026020010181815250505080806105ae90611035565b9150506104ef565b50509091565b6105c4610a29565b80600560006101000a81548173ffffffffffffffffffffffffffffffffffffffff021916908373ffffffffffffffffffffffffffffffffffffffff16021790555050565b60085481565b60065481565b600560009054906101000a900473ffffffffffffffffffffffffffffffffffffffff1681565b610642610a29565b6000479050600560009054906101000a900473ffffffffffffffffffffffffffffffffffffffff1673ffffffffffffffffffffffffffffffffffffffff166108fc829081150290604051600060405180830381858888f193505050501580156106af573d6000803e3d6000fd5b507f5b6b431d4476a211bb7d41c20d1aab9ae2321deee0d20be3d9fc9b1093fa6e3d816040516106df9190610ba2565b60405180910390a150565b6106f2610a29565b6106fc6000610aa7565b565b6004805461070b90610f77565b80601f016020809104026020016040519081016040528092919081815260200182805461073790610f77565b80156107845780601f1061075957610100808354040283529160200191610784565b820191906000526020600020905b81548152906001019060200180831161076757829003601f168201915b505050505081565b60008060009054906101000a900473ffffffffffffffffffffffffffffffffffffffff16905090565b600160205281600052604060002081815481106107d157600080fd5b9060005260206000209060020201600091509150508060000154908060010154905082565b60075481565b60006040518060400160405280348152602001428152509050600160003373ffffffffffffffffffffffffffffffffffffffff1673ffffffffffffffffffffffffffffffffffffffff168152602001908152602001600020819080600181540180825580915050600190039060005260206000209060020201600090919091909150600082015181600001556020820151816001015550506108a934600754610b6b90919063ffffffff16565b600781905550600860008154809291906108c290611035565b91905055503373ffffffffffffffffffffffffffffffffffffffff167f264f630d9efa0d07053a31163641d9fcc0adafc9d9e76f1c37c2ce3a558d2c523460405161090d9190610ba2565b60405180910390a250565b610920610a29565b600073ffffffffffffffffffffffffffffffffffffffff168173ffffffffffffffffffffffffffffffffffffffff160361098f576040517f08c379a0000000000000000000000000000000000000000000000000000000008152600401610986906110ef565b60405180910390fd5b61099881610aa7565b50565b600380546109a890610f77565b80601f01602080910402602001604051908101604052809291908181526020018280546109d490610f77565b8015610a215780601f106109f657610100808354040283529160200191610a21565b820191906000526020600020905b815481529060010190602001808311610a0457829003601f168201915b505050505081565b610a31610b81565b73ffffffffffffffffffffffffffffffffffffffff16610a4f61078c565b73ffffffffffffffffffffffffffffffffffffffff1614610aa5576040517f08c379a0000000000000000000000000000000000000000000000000000000008152600401610a9c9061115b565b60405180910390fd5b565b60008060009054906101000a900473ffffffffffffffffffffffffffffffffffffffff169050816000806101000a81548173ffffffffffffffffffffffffffffffffffffffff021916908373ffffffffffffffffffffffffffffffffffffffff1602179055508173ffffffffffffffffffffffffffffffffffffffff168173ffffffffffffffffffffffffffffffffffffffff167f8be0079c531659141344cd1fd0a4f28419497f9722a3daafe3b4186f6b6457e060405160405180910390a35050565b60008183610b79919061117b565b905092915050565b600033905090565b6000819050919050565b610b9c81610b89565b82525050565b6000602082019050610bb76000830184610b93565b92915050565b600081519050919050565b600082825260208201905092915050565b60005b83811015610bf7578082015181840152602081019050610bdc565b60008484015250505050565b6000601f19601f8301169050919050565b6000610c1f82610bbd565b610c298185610bc8565b9350610c39818560208601610bd9565b610c4281610c03565b840191505092915050565b60006020820190508181036000830152610c678184610c14565b905092915050565b600081519050919050565b600082825260208201905092915050565b6000819050602082019050919050565b610ca481610b89565b82525050565b6000610cb68383610c9b565b60208301905092915050565b6000602082019050919050565b6000610cda82610c6f565b610ce48185610c7a565b9350610cef83610c8b565b8060005b83811015610d20578151610d078882610caa565b9750610d1283610cc2565b925050600181019050610cf3565b5085935050505092915050565b60006040820190508181036000830152610d478185610ccf565b90508181036020830152610d5b8184610ccf565b90509392505050565b600080fd5b600073ffffffffffffffffffffffffffffffffffffffff82169050919050565b6000610d9482610d69565b9050919050565b610da481610d89565b8114610daf57600080fd5b50565b600081359050610dc181610d9b565b92915050565b600060208284031215610ddd57610ddc610d64565b5b6000610deb84828501610db2565b91505092915050565b610dfd81610d89565b82525050565b6000602082019050610e186000830184610df4565b92915050565b6000610e2982610d69565b9050919050565b610e3981610e1e565b82525050565b6000602082019050610e546000830184610e30565b92915050565b610e6381610e1e565b8114610e6e57600080fd5b50565b600081359050610e8081610e5a565b92915050565b610e8f81610b89565b8114610e9a57600080fd5b50565b600081359050610eac81610e86565b92915050565b60008060408385031215610ec957610ec8610d64565b5b6000610ed785828601610e71565b9250506020610ee885828601610e9d565b9150509250929050565b6000604082019050610f076000830185610b93565b610f146020830184610b93565b9392505050565b600060208284031215610f3157610f30610d64565b5b6000610f3f84828501610e71565b91505092915050565b7f4e487b7100000000000000000000000000000000000000000000000000000000600052602260045260246000fd5b60006002820490506001821680610f8f57607f821691505b602082108103610fa257610fa1610f48565b5b50919050565b7f4e487b7100000000000000000000000000000000000000000000000000000000600052604160045260246000fd5b7f4e487b7100000000000000000000000000000000000000000000000000000000600052603260045260246000fd5b7f4e487b7100000000000000000000000000000000000000000000000000000000600052601160045260246000fd5b600061104082610b89565b91507fffffffffffffffffffffffffffffffffffffffffffffffffffffffffffffffff820361107257611071611006565b5b600182019050919050565b7f4f776e61626c653a206e6577206f776e657220697320746865207a65726f206160008201527f6464726573730000000000000000000000000000000000000000000000000000602082015250565b60006110d9602683610bc8565b91506110e48261107d565b604082019050919050565b60006020820190508181036000830152611108816110cc565b9050919050565b7f4f776e61626c653a2063616c6c6572206973206e6f7420746865206f776e6572600082015250565b6000611145602083610bc8565b91506111508261110f565b602082019050919050565b6000602082019050818103600083015261117481611138565b9050919050565b600061118682610b89565b915061119183610b89565b92508282019050808211156111a9576111a8611006565b5b9291505056fea26469706673582212209da364e05fa908828cc01835631e876bb77b55cb07020e8943b4f8cc8124f8d464736f6c63430008110033",
  "immutableReferences": {},
  "source": "// SPDX-License-Identifier: MIT\npragma solidity ^0.8.17;\n\nimport \"@openzeppelin/contracts/access/Ownable.sol\";\nimport \"@openzeppelin/contracts/utils/math/SafeMath.sol\";\n\ncontract Fundraiser is Ownable {\n    using SafeMath for uint256;\n\n    event DonationReceived(address indexed donor, uint256 value);\n    event Withdraw(uint256 amount);\n\n    struct Donation {\n        uint256 value;\n        uint256 date;\n    }\n\n    mapping(address => Donation[]) public _donations;\n\n    string public name;\n    string public image;\n    string public description;\n    address payable public beneficiary;\n    uint256 public goalAmount;\n    uint256 public totalDonations;\n    uint256 public donationsCount;\n\n    constructor(\n        string memory _name,\n        string memory _image,\n        string memory _description,\n        uint256 _goalAmount,\n        address payable _beneficiary,\n        address _custodian\n    ) {\n        name = _name;\n        image = _image;\n        description = _description;\n        goalAmount = _goalAmount;\n        beneficiary = _beneficiary;\n        _transferOwnership(_custodian);\n    }\n\n    function setBeneficiary(address payable _beneficiary) public onlyOwner {\n        beneficiary = _beneficiary;\n    }\n\n    function donate() public payable {\n        Donation memory donation = Donation({\n            value: msg.value,\n            date: block.timestamp\n        });\n        _donations[msg.sender].push(donation);\n        totalDonations = totalDonations.add(msg.value);\n        donationsCount++;\n        emit DonationReceived(msg.sender, msg.value);\n    }\n\n    function myDonationsCount() public view returns (uint256) {\n        return _donations[msg.sender].length;\n    }\n\n    function myDonations()\n        public\n        view\n        returns (uint256[] memory values, uint256[] memory dates)\n    {\n        uint256 count = myDonationsCount();\n        values = new uint256[](count);\n        dates = new uint256[](count);\n        for (uint256 i = 0; i < count; i++) {\n            Donation storage donation = _donations[msg.sender][i];\n            values[i] = donation.value;\n            dates[i] = donation.date;\n        }\n        return (values, dates);\n    }\n\n    function withdraw() public onlyOwner {\n        uint256 balance = address(this).balance;\n        beneficiary.transfer(balance);\n        emit Withdraw(balance);\n    }\n}\n",
  "sourcePath": "/home/thegeorgenikhil/Documents/Work/20EthereumProjects/crowdfunding-truffle/contracts/Fundraiser.sol",
  "compiler": {
    "name": "solc",
    "version": "0.8.17+commit.8df45f5f.Emscripten.clang"
  },
  "schemaVersion": "3.4.11",
  "updatedAt": "2023-01-08T16:08:17.288Z",
  "devdoc": {
    "kind": "dev",
    "methods": {
      "owner()": {
        "details": "Returns the address of the current owner."
      },
      "renounceOwnership()": {
        "details": "Leaves the contract without owner. It will not be possible to call `onlyOwner` functions anymore. Can only be called by the current owner. NOTE: Renouncing ownership will leave the contract without an owner, thereby removing any functionality that is only available to the owner."
      },
      "transferOwnership(address)": {
        "details": "Transfers ownership of the contract to a new account (`newOwner`). Can only be called by the current owner."
      }
    },
    "version": 1
  },
  "userdoc": {
    "kind": "user",
    "methods": {},
    "version": 1
  }
}